{
  "contractName": "Blockgeeks",
  "abi": [
    {
      "constant": false,
      "inputs": [
        {
          "name": "endorsee",
          "type": "address"
        }
      ],
      "name": "endorse",
      "outputs": [
        {
          "name": "",
          "type": "bool"
        }
      ],
      "payable": false,
      "stateMutability": "nonpayable",
      "type": "function"
    },
    {
      "constant": false,
      "inputs": [
        {
          "name": "endorsee",
          "type": "address"
        }
      ],
      "name": "getEndorsementsSimple",
      "outputs": [
        {
          "name": "",
          "type": "uint256"
        }
      ],
      "payable": false,
      "stateMutability": "nonpayable",
      "type": "function"
    },
    {
      "constant": false,
      "inputs": [
        {
          "name": "endorsee",
          "type": "address"
        }
      ],
      "name": "getEndorsementsFull",
      "outputs": [
        {
          "name": "",
          "type": "uint64[]"
        }
      ],
      "payable": false,
      "stateMutability": "nonpayable",
      "type": "function"
    },
    {
      "constant": false,
      "inputs": [
        {
          "name": "endorsee",
          "type": "address"
        }
      ],
      "name": "getEndorsementsTotal",
      "outputs": [
        {
          "name": "",
          "type": "uint64"
        }
      ],
      "payable": false,
      "stateMutability": "nonpayable",
      "type": "function"
    },
    {
      "constant": false,
      "inputs": [
        {
          "name": "endorsee",
          "type": "address"
        },
        {
          "name": "subject",
          "type": "string"
        }
      ],
      "name": "getEndorsementsForSubject",
      "outputs": [
        {
          "name": "",
          "type": "uint64"
        }
      ],
      "payable": false,
      "stateMutability": "nonpayable",
      "type": "function"
    },
    {
      "constant": false,
      "inputs": [
        {
          "name": "s",
          "type": "string"
        }
      ],
      "name": "proposeSubject",
      "outputs": [
        {
          "name": "",
          "type": "bool"
        }
      ],
      "payable": false,
      "stateMutability": "nonpayable",
      "type": "function"
    },
    {
      "constant": false,
      "inputs": [
        {
          "name": "s",
          "type": "string"
        }
      ],
      "name": "enterSubject",
      "outputs": [
        {
          "name": "",
          "type": "bool"
        }
      ],
      "payable": false,
      "stateMutability": "nonpayable",
      "type": "function"
    }
  ],
  "bytecode": "0x6060604052341561000f57600080fd5b610e118061001e6000396000f300606060405260043610610083576000357c0100000000000000000000000000000000000000000000000000000000900463ffffffff16806323b06d1f146100885780636ea5511f146100fd5780637d5e58af1461014e5780638f493f0d1461019b578063adf5d304146101fc578063d71e96d21461028a578063f27791a3146102ff575b600080fd5b341561009357600080fd5b6100e3600480803590602001908201803590602001908080601f016020809104026020016040519081016040528093929190818152602001838380828437820191505050505050919050506103a3565b604051808215151515815260200191505060405180910390f35b341561010857600080fd5b610134600480803573ffffffffffffffffffffffffffffffffffffffff169060200190919050506104a2565b604051808215151515815260200191505060405180910390f35b341561015957600080fd5b610185600480803573ffffffffffffffffffffffffffffffffffffffff169060200190919050506104d1565b6040518082815260200191505060405180910390f35b34156101a657600080fd5b6101d2600480803573ffffffffffffffffffffffffffffffffffffffff1690602001909190505061051c565b604051808267ffffffffffffffff1667ffffffffffffffff16815260200191505060405180910390f35b341561020757600080fd5b610233600480803573ffffffffffffffffffffffffffffffffffffffff1690602001909190505061058d565b6040518080602001828103825283818151815260200191508051906020019060200280838360005b8381101561027657808201518184015260208101905061025b565b505050509050019250505060405180910390f35b341561029557600080fd5b6102e5600480803590602001908201803590602001908080601f016020809104026020016040519081016040528093929190818152602001838380828437820191505050505050919050506105a5565b604051808215151515815260200191505060405180910390f35b341561030a57600080fd5b610379600480803573ffffffffffffffffffffffffffffffffffffffff1690602001909190803590602001908201803590602001908080601f016020809104026020016040519081016040528093929190818152602001838380828437820191505050505050919050506105b7565b604051808267ffffffffffffffff1667ffffffffffffffff16815260200191505060405180910390f35b60006103ae8261067e565b1561049d576064600160003373ffffffffffffffffffffffffffffffffffffffff1673ffffffffffffffffffffffffffffffffffffffff168152602001908152602001600020836040518082805190602001908083835b60208310151561042a5780518252602082019150602081019050602083039250610405565b6001836020036101000a038019825116818451168082178552505050505050905001915050908152602001604051809103902060008282829054906101000a900467ffffffffffffffff160192506101000a81548167ffffffffffffffff021916908367ffffffffffffffff1602179055505b919050565b60006104ae338361069e565b15156104c7576104be3383610876565b600190506104cc565b600090505b919050565b60008060008373ffffffffffffffffffffffffffffffffffffffff1673ffffffffffffffffffffffffffffffffffffffff168152602001908152602001600020805490509050919050565b600080610527610d80565b600080925061053585610919565b9150600090505b81518167ffffffffffffffff16101561058257818167ffffffffffffffff1681518110151561056757fe5b9060200190602002015183019250808060010191505061053c565b829350505050919050565b610595610d80565b61059e82610919565b9050919050565b60006105b08261067e565b9050919050565b6000600160008473ffffffffffffffffffffffffffffffffffffffff1673ffffffffffffffffffffffffffffffffffffffff168152602001908152602001600020826040518082805190602001908083835b60208310151561062e5780518252602082019150602081019050602083039250610609565b6001836020036101000a038019825116818451168082178552505050505050905001915050908152602001604051809103902060009054906101000a900467ffffffffffffffff16905092915050565b600080600061068c84610b6d565b80925081935050508192505050919050565b600080600090505b6000808473ffffffffffffffffffffffffffffffffffffffff1673ffffffffffffffffffffffffffffffffffffffff168152602001908152602001600020805490508167ffffffffffffffff161080156107ac57508373ffffffffffffffffffffffffffffffffffffffff166000808573ffffffffffffffffffffffffffffffffffffffff1673ffffffffffffffffffffffffffffffffffffffff1681526020019081526020016000208267ffffffffffffffff1681548110151561076757fe5b906000526020600020900160009054906101000a900473ffffffffffffffffffffffffffffffffffffffff1673ffffffffffffffffffffffffffffffffffffffff1614155b156107be5780806001019150506106a6565b8373ffffffffffffffffffffffffffffffffffffffff166000808573ffffffffffffffffffffffffffffffffffffffff1673ffffffffffffffffffffffffffffffffffffffff1681526020019081526020016000208267ffffffffffffffff1681548110151561082a57fe5b906000526020600020900160009054906101000a900473ffffffffffffffffffffffffffffffffffffffff1673ffffffffffffffffffffffffffffffffffffffff161491505092915050565b6000808273ffffffffffffffffffffffffffffffffffffffff1673ffffffffffffffffffffffffffffffffffffffff16815260200190815260200160002080548060010182816108c69190610d94565b9160005260206000209001600084909190916101000a81548173ffffffffffffffffffffffffffffffffffffffff021916908373ffffffffffffffffffffffffffffffffffffffff160217905550505050565b610921610d80565b610929610d80565b600080600091505b6000808673ffffffffffffffffffffffffffffffffffffffff1673ffffffffffffffffffffffffffffffffffffffff168152602001908152602001600020805490508267ffffffffffffffff161015610b6257600090505b6002805490508167ffffffffffffffff161015610b5557600160008060008873ffffffffffffffffffffffffffffffffffffffff1673ffffffffffffffffffffffffffffffffffffffff1681526020019081526020016000208467ffffffffffffffff168154811015156109f957fe5b906000526020600020900160009054906101000a900473ffffffffffffffffffffffffffffffffffffffff1673ffffffffffffffffffffffffffffffffffffffff1673ffffffffffffffffffffffffffffffffffffffff16815260200190815260200160002060028267ffffffffffffffff16815481101515610a7857fe5b90600052602060002090016040518082805460018160011615610100020316600290048015610ade5780601f10610abc576101008083540402835291820191610ade565b820191906000526020600020905b815481529060010190602001808311610aca575b5050915050908152602001604051809103902060009054906101000a900467ffffffffffffffff16838267ffffffffffffffff16815181101515610b1e57fe5b9060200190602002018181510191509067ffffffffffffffff16908167ffffffffffffffff16815250508080600101915050610989565b8180600101925050610931565b829350505050919050565b60008060008090505b836040518082805190602001908083835b602083101515610bac5780518252602082019150602081019050602083039250610b87565b6001836020036101000a038019825116818451168082178552505050505050905001915050604051809103902060001916600282815481101515610bec57fe5b90600052602060002090016040518082805460018160011615610100020316600290048015610c525780601f10610c30576101008083540402835291820191610c52565b820191906000526020600020905b815481529060010190602001808311610c3e575b505091505060405180910390206000191614158015610c75575060028054905081105b15610c87578080600101915050610b76565b836040518082805190602001908083835b602083101515610cbd5780518252602082019150602081019050602083039250610c98565b6001836020036101000a038019825116818451168082178552505050505050905001915050604051809103902060001916600282815481101515610cfd57fe5b90600052602060002090016040518082805460018160011615610100020316600290048015610d635780601f10610d41576101008083540402835291820191610d63565b820191906000526020600020905b815481529060010190602001808311610d4f575b505091505060405180910390206000191614819250925050915091565b602060405190810160405280600081525090565b815481835581811511610dbb57818360005260206000209182019101610dba9190610dc0565b5b505050565b610de291905b80821115610dde576000816000905550600101610dc6565b5090565b905600a165627a7a72305820142412a48295ad9b59eff19c6001680668e2b8cea6ef11f5b72321ee70a9db7c0029",
  "source": "pragma solidity ^0.4.14;\n\ncontract Blockgeeks {\n\n\tmapping(address => address[]) private endorsers; \n\tmapping(address => mapping(string => uint64)) private balances;\n\tstring[] private balancesLUT;\n\n\tfunction endorser_exists(address endorser, address endorsee) private returns (bool) {\n\t\tuint64 i = 0;\n\t\twhile (i < endorsers[endorsee].length && endorsers[endorsee][i] != endorser) {\n\t\t\ti++;\n\t\t}\n\t\treturn endorsers[endorsee][i] == endorser;\n\t}\n\tfunction add_endorsement(address e, address endorsee) private {\n\t\tendorsers[endorsee].push(e);\n\t}\n\n\tfunction subjectExistsAt(string s) private returns (bool x, uint i) {\n\t\tuint j = 0;\n\t\twhile (keccak256(balancesLUT[j]) != keccak256(s) && j < balancesLUT.length) {\n\t\t\tj++;\n\t\t}\n\t\treturn (keccak256(balancesLUT[j]) == keccak256(s), j);\n\t}\n\tfunction subjectExists(string s) private returns (bool) {\n\t\tbool x;\n\t\tuint i;\n\t\t(x,i) = subjectExistsAt(s);\n\t\treturn x;\n\t}\n\tfunction getEndorsementsDetail(address endorsee) private returns (uint64[]) {\n\t\tuint64[] memory r;\n\t\tfor (uint64 i=0;i<endorsers[endorsee].length;i++) {\n\t\t\t// btmp = tokenrepo.getBalances(endorsers[endorsee][i]);\n\t\t\tfor (uint64 j=0;j<balancesLUT.length;j++) {\n\t\t\t\tr[j] += balances[endorsers[endorsee][i]][balancesLUT[j]];\n\t\t\t}\n\t\t}\n\t\treturn r;\n\t}\n\n\n\t// external api\n\n\tfunction endorse(address endorsee) external returns (bool) {\n\t\tif (!endorser_exists(msg.sender, endorsee)) {\n\t\t\tadd_endorsement(msg.sender, endorsee);\n\t\t\treturn true;\n\t\t}\n\t\treturn false;\n\t}\n\tfunction getEndorsementsSimple(address endorsee) external returns (uint) {\n\t\treturn endorsers[endorsee].length;\n\t}\n\tfunction getEndorsementsFull(address endorsee) external returns (uint64[]) {\n\t\treturn getEndorsementsDetail(endorsee);\n\t}\n\tfunction getEndorsementsTotal(address endorsee) external returns (uint64) {\n\t\tuint64 r = 0;\n\t\tuint64[] memory b = getEndorsementsDetail(endorsee);\n\t\tfor (uint64 i=0;i<b.length;i++) {\n\t\t\tr += b[i];\n\t\t}\n\t\treturn r;\n\t}\n\tfunction getEndorsementsForSubject(address endorsee, string subject) public returns (uint64) {\n\t\treturn balances[endorsee][subject];\n\t}\n\tfunction proposeSubject(string s) public returns (bool) {\n\t\treturn subjectExists(s);\n\t}\n\tfunction enterSubject(string s) public returns (bool) {\n\t\tif (subjectExists(s)) {\n\t\t\tbalances[msg.sender][s] += 100;\n\t\t}\n\t}\n}\n\n",
  "sourcePath": "/Users/brett/Documents/blockgeeks/contracts/Reputation.sol",
  "compiler": {
    "name": "solc",
    "version": "0.4.19+commit.c4cbbb05.Emscripten.clang"
  },
  "schemaVersion": "2.0.0",
  "updatedAt": "2018-03-03T21:49:38.469Z"
}